S011000053696D706C65504F562E73726563B4
S11300000C9434000C9401010C9451000C94510094
S11300100C9451000C9451000C9451000C94510018
S11300200C9451000C9451000C9451000C94530006
S11300300C9451000C9451000C9451000C945100F8
S11300400C9451000C9451000C9451000C945100E8
S11300500C9451000C9451000C9451000C945100D8
S11300600C9451000C94510011241FBECFEFD8E022
S1130070DEBFCDBF17E0A0E0B1E0E8EAF2E002C0E5
S113008005900D92AE30B107D9F727E0AEE0B7E0A6
S113009001C01D92A031B207E1F70E9420010C9427
S11300A052010C9400001F920F920FB60F9211246C
S11300B02F933F934F935F936F937F938F939F936C
S11300C0AF93BF93CF93DF93EF93FF9388B1807C7B
S11300D088B9C8B1E0910E07F0910F079F01ABEA10
S11300E0BAEA0E9443019C013695279536952795D7
S11300F0D901A050BF4F9C91492F50E0C901880FEE
S1130100991F280F391F220F331FE21BF30BCA015B
S1130110880F991F480F591F440F551F435F5E4FA7
S1130120E40FF51F808180958F73C82BC8B985B102
S11301308C7F85B9E5B1C0910E07D0910F079E0160
S1130140ABEABAEA0E9443019C013695279536959D
S11301502795D901A050BF4F9C91492F50E0C90168
S1130160880F991F280F391F220F331FC21BD30B6F
S1130170CA01880F991F480F591F440F551F435F29
S11301805E4FC40FD51F888190E080959095082E0E
S1130190892F000C881F990B000C881F991F8370EE
S11301A08E2B85B980910E0790910F0701968834A4
S11301B0910528F490930F0780930E070EC01092B8
S11301C00F0710920E07E1E8F0E08081887F8083BA
S11301D0EFE6F0E080818D7F8083B198FF91EF910D
S11301E0DF91CF91BF91AF919F918F917F916F914B
S11301F05F914F913F912F910F900FBE0F901F90E1
S113020018951F920F920FB60F9211248F93EF93AC
S1130210FF93EFE6F0E08081826080831092850096
S113022010928400E1E8F0E0808182608083E098AD
S1130230FF91EF918F910F900FBE0F901F90189523
S1130240529888B18F6388B985B1836085B987B1C5
S11302508F6387B984B1836084B982E08093690035
S113026081E08DBB1092800088E08093810088EE4D
S113027093E09093890080938800109285001092F7
S113028084007894FFCFA29FB001B39FC001A39FC5
S1130290700D811D1124911DB29F700D811D1124BB
S10B02A0911D0895F894FFCFAD
S11302A848656C6C6F2C20534353432100000000B5
S11302B80000007CA28AA27C007CD6F6D67C00389A
S11302C87C3E7C3800183C7E3C18000C6CFE6C0CA0
S11302D800183A7E3A1800001818000000FFE7E7F3
S11302E8FFFF003C24243C0000C3DBDBC3FF000CFD
S11302F812526C700060949E946000060EFC4020BC
S113030800067E50ACFC0054386C38540000FE7C67
S113031838100010387CFE0000286CFE6C280000A1
S1130328FA00FA00006090FE80FE0044B2AA9A44E3
S113033800060606060000286DFF6D28002060FEF2
S1130348602000080CFE0C080010107C3810001007
S1130358387C1010001E0202020200107C107C106F
S1130368000C3CFC3C0C00C0F0FCF0C00000000099
S11303780000000060FA600000E0C000E0C0002453
S11303887E247E240024D456480000C6C81026C6FD
S1130398006C926A040A0000E0C0000000007C823D
S11303A800000000827C000000107C387C100010E3
S11303B8107C101000000706000000101010101028
S11303C8000006060000000408102040007C8A9201
S11303D8A27C000042FE020000468A929262004417
S11303E89292926C00182848FE0800F49292928C1B
S11303F8003C5292920C00808E90A0C0006C9292A5
S1130408926C0060929294780000363600000000E6
S113041837360000001028448200002424242424B1
S11304280000824428100040809A9060007C82BAC0
S1130438AA78007E8888887E00FE9292926C007C5E
S11304488282824400FE8282827C00FE92929282A0
S113045800FE90909080007C8292925E00FE1010C4
S113046810FE000082FE8200000C020202FC00FE64
S11304781028448200FE0202020200FE402040FED0
S113048800FE402010FE007C8282827C00FE909058
S11304989060007C828A847A00FE9090986600645A
S11304A89292924C008080FE808000FC020202FC42
S11304B800F8040204F800FC023C02FC00C6281000
S11304C828C600E0100E10E0008E92A2C2000000C0
S11304D8FE82820000402010080400008282FE0090
S11304E80020408040200001010101010000C0E01B
S11304F8000000042A2A2A1E00FE2222221C001CB4
S113050822222214001C222222FE001C2A2A2A103B
S113051800107E90900000182525253E00FE20201E
S11305281E00000000BE020000020121BE0000FE01
S113053808142200000000FE0200003E2018201EBD
S1130548003E20201E00001C2222221C003F2222E2
S1130558221C001C2222223F00221E2220100010EE
S11305682A2A2A0400207C222400003C02043E009B
S1130578003804020438003C060C063C003608081F
S11305883600003905063C0000262A2A32000010ED
S11305987C828200000000EE0000000082827C1051
S11305A8004080408000003C64C4643C0078858737
S11305B8844800BC0204BE00001C2A2AAA90000435
S11305C8AAAAAA1E0004AA2AAA1E0004AAAA2A1EC3
S11305D80004EAAAEA1E003845474428001CAAAACF
S11305E8AA10001CAA2AAA10001CAAAA2A100000F1
S11305F8803E82000000409E42000000803E0200CF
S1130608000E9424940E001EF4A4F41E003E2A2A1C
S1130618AAA2002C2A3E2A1A007E90FE9292001C5E
S1130628A2A29C00001CA2229C00009CA2221C00E6
S1130638003C8284BE0000BC82043E00003985066A
S1130648BC0000BC4242BC00003C8202BC00001852
S11306582466240000127C9292460094543E5494DA
S113066800FE90681E080002117E904000042AAA29
S1130678AA1E000000BE8200001C22A29C00003CAE
S11306880284BE00005E90508E00005E88449E0086
S11306980010AAAAAA7A00728A8A7200000C12B2FE
S11306A80204003C2020202000202020203800E8DC
S11306B81032560A00E8102C541E00000CBE0C0020
S11306C8001028001028002810002810008822880C
S11306D8228800AA55AA55AA0077DD77DD7700009D
S11306E800FF0000001010FF0000005050FF000041
S11306F800FF00FF0000001F101F00000050507F83
S1130708000000DF00FF000000FF00FF0000005FA2
S1130718407F000000D010F0000000F010F000004E
S1130728005050F000000010101F0000000000F0FE
S11307381010001010F010100010101F10100000FE
S113074800FF1010001010101010001010FF1010EF
S1130758000000FF505000FF00FF101000F010D000
S11307685050007F405F505000D010D05050005F70
S1130778405F505000FF00DF505000505050505020
S113078800DF00DF5050005050D0505000F010F0FF
S113079810100050505F5050001F101F101000F030
S11307A810F01010000000F050500000007F50506E
S11307B8001F101F101000FF00FF1010005050DF22
S11307C85050001010F000000000001F101000FF2F
S11307D8FFFFFFFF000F0F0F0F0F00FFFF000000C8
S11307E8000000FFFFFF00F0F0F0F0F000182424F0
S11307F81824007F52522C0000FE8080C000004064
S11308087E407E4000C6AA92C600001824243820E0
S1130818003F040438000010201E20000010AAEE37
S1130828AA10007C92927C0000324E404E32004462
S1130838AA9A0C000018241824180018247E2418D6
S1130848003854545400003C40403C000054545474
S11308585400000024742400008A5252220000220A
S113086852528A000000003F4020000402FC0000AD
S11308780010105410100024482448000060909080
S11308886000000018180000000010000000000CB0
S1130898027C40400080708070000090B0500000DE
S11108A8003C3C3C3C0000000000000000004E
S9030000FC
